{
  "abi": [
    {
      "type": "constructor",
      "inputs": [
        {
          "name": "beefyClient",
          "type": "address",
          "internalType": "address"
        },
        {
          "name": "agentExecutor",
          "type": "address",
          "internalType": "address"
        }
      ],
      "stateMutability": "nonpayable"
    },
    {
      "type": "function",
      "name": "AGENT_EXECUTOR",
      "inputs": [],
      "outputs": [
        {
          "name": "",
          "type": "address",
          "internalType": "address"
        }
      ],
      "stateMutability": "view"
    },
    {
      "type": "function",
      "name": "BEEFY_CLIENT",
      "inputs": [],
      "outputs": [
        {
          "name": "",
          "type": "address",
          "internalType": "address"
        }
      ],
      "stateMutability": "view"
    },
    {
      "type": "function",
      "name": "agentOf",
      "inputs": [
        {
          "name": "agentID",
          "type": "bytes32",
          "internalType": "bytes32"
        }
      ],
      "outputs": [
        {
          "name": "",
          "type": "address",
          "internalType": "address"
        }
      ],
      "stateMutability": "view"
    },
    {
      "type": "function",
      "name": "channelNoncesOf",
      "inputs": [
        {
          "name": "channelID",
          "type": "bytes32",
          "internalType": "ChannelID"
        }
      ],
      "outputs": [
        {
          "name": "",
          "type": "uint64",
          "internalType": "uint64"
        },
        {
          "name": "",
          "type": "uint64",
          "internalType": "uint64"
        }
      ],
      "stateMutability": "view"
    },
    {
      "type": "function",
      "name": "channelOperatingModeOf",
      "inputs": [
        {
          "name": "channelID",
          "type": "bytes32",
          "internalType": "ChannelID"
        }
      ],
      "outputs": [
        {
          "name": "",
          "type": "uint8",
          "internalType": "enum OperatingMode"
        }
      ],
      "stateMutability": "view"
    },
    {
      "type": "function",
      "name": "depositEther",
      "inputs": [],
      "outputs": [],
      "stateMutability": "payable"
    },
    {
      "type": "function",
      "name": "implementation",
      "inputs": [],
      "outputs": [
        {
          "name": "",
          "type": "address",
          "internalType": "address"
        }
      ],
      "stateMutability": "view"
    },
    {
      "type": "function",
      "name": "initialize",
      "inputs": [
        {
          "name": "data",
          "type": "bytes",
          "internalType": "bytes"
        }
      ],
      "outputs": [],
      "stateMutability": "nonpayable"
    },
    {
      "type": "function",
      "name": "isTokenRegistered",
      "inputs": [
        {
          "name": "token",
          "type": "address",
          "internalType": "address"
        }
      ],
      "outputs": [
        {
          "name": "",
          "type": "bool",
          "internalType": "bool"
        }
      ],
      "stateMutability": "view"
    },
    {
      "type": "function",
      "name": "operatingMode",
      "inputs": [],
      "outputs": [
        {
          "name": "",
          "type": "uint8",
          "internalType": "enum OperatingMode"
        }
      ],
      "stateMutability": "view"
    },
    {
      "type": "function",
      "name": "pricingParameters",
      "inputs": [],
      "outputs": [
        {
          "name": "",
          "type": "uint256",
          "internalType": "UD60x18"
        },
        {
          "name": "",
          "type": "uint128",
          "internalType": "uint128"
        }
      ],
      "stateMutability": "view"
    },
    {
      "type": "function",
      "name": "queryForeignTokenID",
      "inputs": [
        {
          "name": "token",
          "type": "address",
          "internalType": "address"
        }
      ],
      "outputs": [
        {
          "name": "",
          "type": "bytes32",
          "internalType": "bytes32"
        }
      ],
      "stateMutability": "view"
    },
    {
      "type": "function",
      "name": "quoteRegisterTokenFee",
      "inputs": [],
      "outputs": [
        {
          "name": "",
          "type": "uint256",
          "internalType": "uint256"
        }
      ],
      "stateMutability": "view"
    },
    {
      "type": "function",
      "name": "quoteSendTokenFee",
      "inputs": [
        {
          "name": "token",
          "type": "address",
          "internalType": "address"
        },
        {
          "name": "destinationChain",
          "type": "uint32",
          "internalType": "ParaID"
        },
        {
          "name": "destinationFee",
          "type": "uint128",
          "internalType": "uint128"
        }
      ],
      "outputs": [
        {
          "name": "",
          "type": "uint256",
          "internalType": "uint256"
        }
      ],
      "stateMutability": "view"
    },
    {
      "type": "function",
      "name": "registerToken",
      "inputs": [
        {
          "name": "token",
          "type": "address",
          "internalType": "address"
        }
      ],
      "outputs": [],
      "stateMutability": "payable"
    },
    {
      "type": "function",
      "name": "sendToken",
      "inputs": [
        {
          "name": "token",
          "type": "address",
          "internalType": "address"
        },
        {
          "name": "destinationChain",
          "type": "uint32",
          "internalType": "ParaID"
        },
        {
          "name": "destinationAddress",
          "type": "tuple",
          "internalType": "struct MultiAddress",
          "components": [
            {
              "name": "kind",
              "type": "uint8",
              "internalType": "enum Kind"
            },
            {
              "name": "data",
              "type": "bytes",
              "internalType": "bytes"
            }
          ]
        },
        {
          "name": "destinationFee",
          "type": "uint128",
          "internalType": "uint128"
        },
        {
          "name": "amount",
          "type": "uint128",
          "internalType": "uint128"
        }
      ],
      "outputs": [],
      "stateMutability": "payable"
    },
    {
      "type": "function",
      "name": "submitV1",
      "inputs": [
        {
          "name": "message",
          "type": "tuple",
          "internalType": "struct InboundMessage",
          "components": [
            {
              "name": "channelID",
              "type": "bytes32",
              "internalType": "ChannelID"
            },
            {
              "name": "nonce",
              "type": "uint64",
              "internalType": "uint64"
            },
            {
              "name": "command",
              "type": "uint8",
              "internalType": "enum Command"
            },
            {
              "name": "params",
              "type": "bytes",
              "internalType": "bytes"
            },
            {
              "name": "maxDispatchGas",
              "type": "uint64",
              "internalType": "uint64"
            },
            {
              "name": "maxFeePerGas",
              "type": "uint256",
              "internalType": "uint256"
            },
            {
              "name": "reward",
              "type": "uint256",
              "internalType": "uint256"
            },
            {
              "name": "id",
              "type": "bytes32",
              "internalType": "bytes32"
            }
          ]
        },
        {
          "name": "leafProof",
          "type": "bytes32[]",
          "internalType": "bytes32[]"
        },
        {
          "name": "headerProof",
          "type": "tuple",
          "internalType": "struct Verification.Proof",
          "components": [
            {
              "name": "header",
              "type": "tuple",
              "internalType": "struct Verification.ParachainHeader",
              "components": [
                {
                  "name": "parentHash",
                  "type": "bytes32",
                  "internalType": "bytes32"
                },
                {
                  "name": "number",
                  "type": "uint256",
                  "internalType": "uint256"
                },
                {
                  "name": "stateRoot",
                  "type": "bytes32",
                  "internalType": "bytes32"
                },
                {
                  "name": "extrinsicsRoot",
                  "type": "bytes32",
                  "internalType": "bytes32"
                },
                {
                  "name": "digestItems",
                  "type": "tuple[]",
                  "internalType": "struct Verification.DigestItem[]",
                  "components": [
                    {
                      "name": "kind",
                      "type": "uint256",
                      "internalType": "uint256"
                    },
                    {
                      "name": "consensusEngineID",
                      "type": "bytes4",
                      "internalType": "bytes4"
                    },
                    {
                      "name": "data",
                      "type": "bytes",
                      "internalType": "bytes"
                    }
                  ]
                }
              ]
            },
            {
              "name": "headProof",
              "type": "tuple",
              "internalType": "struct Verification.HeadProof",
              "components": [
                {
                  "name": "pos",
                  "type": "uint256",
                  "internalType": "uint256"
                },
                {
                  "name": "width",
                  "type": "uint256",
                  "internalType": "uint256"
                },
                {
                  "name": "proof",
                  "type": "bytes32[]",
                  "internalType": "bytes32[]"
                }
              ]
            },
            {
              "name": "leafPartial",
              "type": "tuple",
              "internalType": "struct Verification.MMRLeafPartial",
              "components": [
                {
                  "name": "version",
                  "type": "uint8",
                  "internalType": "uint8"
                },
                {
                  "name": "parentNumber",
                  "type": "uint32",
                  "internalType": "uint32"
                },
                {
                  "name": "parentHash",
                  "type": "bytes32",
                  "internalType": "bytes32"
                },
                {
                  "name": "nextAuthoritySetID",
                  "type": "uint64",
                  "internalType": "uint64"
                },
                {
                  "name": "nextAuthoritySetLen",
                  "type": "uint32",
                  "internalType": "uint32"
                },
                {
                  "name": "nextAuthoritySetRoot",
                  "type": "bytes32",
                  "internalType": "bytes32"
                }
              ]
            },
            {
              "name": "leafProof",
              "type": "bytes32[]",
              "internalType": "bytes32[]"
            },
            {
              "name": "leafProofOrder",
              "type": "uint256",
              "internalType": "uint256"
            }
          ]
        }
      ],
      "outputs": [],
      "stateMutability": "nonpayable"
    },
    {
      "type": "function",
      "name": "tokenAddressOf",
      "inputs": [
        {
          "name": "tokenID",
          "type": "bytes32",
          "internalType": "bytes32"
        }
      ],
      "outputs": [
        {
          "name": "",
          "type": "address",
          "internalType": "address"
        }
      ],
      "stateMutability": "view"
    },
    {
      "type": "function",
      "name": "v1_handleAgentExecute",
      "inputs": [
        {
          "name": "data",
          "type": "bytes",
          "internalType": "bytes"
        }
      ],
      "outputs": [],
      "stateMutability": "nonpayable"
    },
    {
      "type": "function",
      "name": "v1_handleMintForeignToken",
      "inputs": [
        {
          "name": "channelID",
          "type": "bytes32",
          "internalType": "ChannelID"
        },
        {
          "name": "data",
          "type": "bytes",
          "internalType": "bytes"
        }
      ],
      "outputs": [],
      "stateMutability": "nonpayable"
    },
    {
      "type": "function",
      "name": "v1_handleRegisterForeignToken",
      "inputs": [
        {
          "name": "data",
          "type": "bytes",
          "internalType": "bytes"
        }
      ],
      "outputs": [],
      "stateMutability": "nonpayable"
    },
    {
      "type": "function",
      "name": "v1_handleSetOperatingMode",
      "inputs": [
        {
          "name": "data",
          "type": "bytes",
          "internalType": "bytes"
        }
      ],
      "outputs": [],
      "stateMutability": "nonpayable"
    },
    {
      "type": "function",
      "name": "v1_handleSetPricingParameters",
      "inputs": [
        {
          "name": "data",
          "type": "bytes",
          "internalType": "bytes"
        }
      ],
      "outputs": [],
      "stateMutability": "nonpayable"
    },
    {
      "type": "function",
      "name": "v1_handleSetTokenTransferFees",
      "inputs": [
        {
          "name": "data",
          "type": "bytes",
          "internalType": "bytes"
        }
      ],
      "outputs": [],
      "stateMutability": "nonpayable"
    },
    {
      "type": "function",
      "name": "v1_handleUnlockNativeToken",
      "inputs": [
        {
          "name": "data",
          "type": "bytes",
          "internalType": "bytes"
        }
      ],
      "outputs": [],
      "stateMutability": "nonpayable"
    },
    {
      "type": "function",
      "name": "v1_handleUpgrade",
      "inputs": [
        {
          "name": "data",
          "type": "bytes",
          "internalType": "bytes"
        }
      ],
      "outputs": [],
      "stateMutability": "nonpayable"
    },
    {
      "type": "function",
      "name": "v2_createAgent",
      "inputs": [
        {
          "name": "id",
          "type": "bytes32",
          "internalType": "bytes32"
        }
      ],
      "outputs": [],
      "stateMutability": "nonpayable"
    },
    {
      "type": "function",
      "name": "v2_handleCallContract",
      "inputs": [
        {
          "name": "origin",
          "type": "bytes32",
          "internalType": "bytes32"
        },
        {
          "name": "data",
          "type": "bytes",
          "internalType": "bytes"
        }
      ],
      "outputs": [],
      "stateMutability": "nonpayable"
    },
    {
      "type": "function",
      "name": "v2_handleMintForeignToken",
      "inputs": [
        {
          "name": "data",
          "type": "bytes",
          "internalType": "bytes"
        }
      ],
      "outputs": [],
      "stateMutability": "nonpayable"
    },
    {
      "type": "function",
      "name": "v2_handleRegisterForeignToken",
      "inputs": [
        {
          "name": "data",
          "type": "bytes",
          "internalType": "bytes"
        }
      ],
      "outputs": [],
      "stateMutability": "nonpayable"
    },
    {
      "type": "function",
      "name": "v2_handleSetOperatingMode",
      "inputs": [
        {
          "name": "data",
          "type": "bytes",
          "internalType": "bytes"
        }
      ],
      "outputs": [],
      "stateMutability": "nonpayable"
    },
    {
      "type": "function",
      "name": "v2_handleUnlockNativeToken",
      "inputs": [
        {
          "name": "data",
          "type": "bytes",
          "internalType": "bytes"
        }
      ],
      "outputs": [],
      "stateMutability": "nonpayable"
    },
    {
      "type": "function",
      "name": "v2_handleUpgrade",
      "inputs": [
        {
          "name": "data",
          "type": "bytes",
          "internalType": "bytes"
        }
      ],
      "outputs": [],
      "stateMutability": "nonpayable"
    },
    {
      "type": "function",
      "name": "v2_isDispatched",
      "inputs": [
        {
          "name": "nonce",
          "type": "uint64",
          "internalType": "uint64"
        }
      ],
      "outputs": [
        {
          "name": "",
          "type": "bool",
          "internalType": "bool"
        }
      ],
      "stateMutability": "view"
    },
    {
      "type": "function",
      "name": "v2_outboundNonce",
      "inputs": [],
      "outputs": [
        {
          "name": "",
          "type": "uint64",
          "internalType": "uint64"
        }
      ],
      "stateMutability": "view"
    },
    {
      "type": "function",
      "name": "v2_registerToken",
      "inputs": [
        {
          "name": "token",
          "type": "address",
          "internalType": "address"
        },
        {
          "name": "network",
          "type": "uint8",
          "internalType": "uint8"
        },
        {
          "name": "executionFee",
          "type": "uint128",
          "internalType": "uint128"
        },
        {
          "name": "relayerFee",
          "type": "uint128",
          "internalType": "uint128"
        }
      ],
      "outputs": [],
      "stateMutability": "payable"
    },
    {
      "type": "function",
      "name": "v2_sendMessage",
      "inputs": [
        {
          "name": "xcm",
          "type": "bytes",
          "internalType": "bytes"
        },
        {
          "name": "assets",
          "type": "bytes[]",
          "internalType": "bytes[]"
        },
        {
          "name": "claimer",
          "type": "bytes",
          "internalType": "bytes"
        },
        {
          "name": "executionFee",
          "type": "uint128",
          "internalType": "uint128"
        },
        {
          "name": "relayerFee",
          "type": "uint128",
          "internalType": "uint128"
        }
      ],
      "outputs": [],
      "stateMutability": "payable"
    },
    {
      "type": "function",
      "name": "v2_submit",
      "inputs": [
        {
          "name": "message",
          "type": "tuple",
          "internalType": "struct InboundMessage",
          "components": [
            {
              "name": "origin",
              "type": "bytes32",
              "internalType": "bytes32"
            },
            {
              "name": "nonce",
              "type": "uint64",
              "internalType": "uint64"
            },
            {
              "name": "topic",
              "type": "bytes32",
              "internalType": "bytes32"
            },
            {
              "name": "commands",
              "type": "tuple[]",
              "internalType": "struct Command[]",
              "components": [
                {
                  "name": "kind",
                  "type": "uint8",
                  "internalType": "uint8"
                },
                {
                  "name": "gas",
                  "type": "uint64",
                  "internalType": "uint64"
                },
                {
                  "name": "payload",
                  "type": "bytes",
                  "internalType": "bytes"
                }
              ]
            }
          ]
        },
        {
          "name": "leafProof",
          "type": "bytes32[]",
          "internalType": "bytes32[]"
        },
        {
          "name": "headerProof",
          "type": "tuple",
          "internalType": "struct Verification.Proof",
          "components": [
            {
              "name": "header",
              "type": "tuple",
              "internalType": "struct Verification.ParachainHeader",
              "components": [
                {
                  "name": "parentHash",
                  "type": "bytes32",
                  "internalType": "bytes32"
                },
                {
                  "name": "number",
                  "type": "uint256",
                  "internalType": "uint256"
                },
                {
                  "name": "stateRoot",
                  "type": "bytes32",
                  "internalType": "bytes32"
                },
                {
                  "name": "extrinsicsRoot",
                  "type": "bytes32",
                  "internalType": "bytes32"
                },
                {
                  "name": "digestItems",
                  "type": "tuple[]",
                  "internalType": "struct Verification.DigestItem[]",
                  "components": [
                    {
                      "name": "kind",
                      "type": "uint256",
                      "internalType": "uint256"
                    },
                    {
                      "name": "consensusEngineID",
                      "type": "bytes4",
                      "internalType": "bytes4"
                    },
                    {
                      "name": "data",
                      "type": "bytes",
                      "internalType": "bytes"
                    }
                  ]
                }
              ]
            },
            {
              "name": "headProof",
              "type": "tuple",
              "internalType": "struct Verification.HeadProof",
              "components": [
                {
                  "name": "pos",
                  "type": "uint256",
                  "internalType": "uint256"
                },
                {
                  "name": "width",
                  "type": "uint256",
                  "internalType": "uint256"
                },
                {
                  "name": "proof",
                  "type": "bytes32[]",
                  "internalType": "bytes32[]"
                }
              ]
            },
            {
              "name": "leafPartial",
              "type": "tuple",
              "internalType": "struct Verification.MMRLeafPartial",
              "components": [
                {
                  "name": "version",
                  "type": "uint8",
                  "internalType": "uint8"
                },
                {
                  "name": "parentNumber",
                  "type": "uint32",
                  "internalType": "uint32"
                },
                {
                  "name": "parentHash",
                  "type": "bytes32",
                  "internalType": "bytes32"
                },
                {
                  "name": "nextAuthoritySetID",
                  "type": "uint64",
                  "internalType": "uint64"
                },
                {
                  "name": "nextAuthoritySetLen",
                  "type": "uint32",
                  "internalType": "uint32"
                },
                {
                  "name": "nextAuthoritySetRoot",
                  "type": "bytes32",
                  "internalType": "bytes32"
                }
              ]
            },
            {
              "name": "leafProof",
              "type": "bytes32[]",
              "internalType": "bytes32[]"
            },
            {
              "name": "leafProofOrder",
              "type": "uint256",
              "internalType": "uint256"
            }
          ]
        },
        {
          "name": "rewardAddress",
          "type": "bytes32",
          "internalType": "bytes32"
        }
      ],
      "outputs": [],
      "stateMutability": "nonpayable"
    },
    {
      "type": "event",
      "name": "AgentCreated",
      "inputs": [
        {
          "name": "agentID",
          "type": "bytes32",
          "indexed": false,
          "internalType": "bytes32"
        },
        {
          "name": "agent",
          "type": "address",
          "indexed": false,
          "internalType": "address"
        }
      ],
      "anonymous": false
    },
    {
      "type": "event",
      "name": "AgentFundsWithdrawn",
      "inputs": [
        {
          "name": "agentID",
          "type": "bytes32",
          "indexed": true,
          "internalType": "bytes32"
        },
        {
          "name": "recipient",
          "type": "address",
          "indexed": true,
          "internalType": "address"
        },
        {
          "name": "amount",
          "type": "uint256",
          "indexed": false,
          "internalType": "uint256"
        }
      ],
      "anonymous": false
    },
    {
      "type": "event",
      "name": "CommandFailed",
      "inputs": [
        {
          "name": "nonce",
          "type": "uint64",
          "indexed": true,
          "internalType": "uint64"
        },
        {
          "name": "index",
          "type": "uint256",
          "indexed": false,
          "internalType": "uint256"
        }
      ],
      "anonymous": false
    },
    {
      "type": "event",
      "name": "Deposited",
      "inputs": [
        {
          "name": "sender",
          "type": "address",
          "indexed": false,
          "internalType": "address"
        },
        {
          "name": "amount",
          "type": "uint256",
          "indexed": false,
          "internalType": "uint256"
        }
      ],
      "anonymous": false
    },
    {
      "type": "event",
      "name": "ForeignTokenRegistered",
      "inputs": [
        {
          "name": "tokenID",
          "type": "bytes32",
          "indexed": true,
          "internalType": "bytes32"
        },
        {
          "name": "token",
          "type": "address",
          "indexed": false,
          "internalType": "address"
        }
      ],
      "anonymous": false
    },
    {
      "type": "event",
      "name": "InboundMessageDispatched",
      "inputs": [
        {
          "name": "channelID",
          "type": "bytes32",
          "indexed": true,
          "internalType": "ChannelID"
        },
        {
          "name": "nonce",
          "type": "uint64",
          "indexed": false,
          "internalType": "uint64"
        },
        {
          "name": "messageID",
          "type": "bytes32",
          "indexed": true,
          "internalType": "bytes32"
        },
        {
          "name": "success",
          "type": "bool",
          "indexed": false,
          "internalType": "bool"
        }
      ],
      "anonymous": false
    },
    {
      "type": "event",
      "name": "InboundMessageDispatched",
      "inputs": [
        {
          "name": "nonce",
          "type": "uint64",
          "indexed": true,
          "internalType": "uint64"
        },
        {
          "name": "topic",
          "type": "bytes32",
          "indexed": false,
          "internalType": "bytes32"
        },
        {
          "name": "success",
          "type": "bool",
          "indexed": false,
          "internalType": "bool"
        },
        {
          "name": "rewardAddress",
          "type": "bytes32",
          "indexed": false,
          "internalType": "bytes32"
        }
      ],
      "anonymous": false
    },
    {
      "type": "event",
      "name": "OperatingModeChanged",
      "inputs": [
        {
          "name": "mode",
          "type": "uint8",
          "indexed": false,
          "internalType": "enum OperatingMode"
        }
      ],
      "anonymous": false
    },
    {
      "type": "event",
      "name": "OutboundMessageAccepted",
      "inputs": [
        {
          "name": "channelID",
          "type": "bytes32",
          "indexed": true,
          "internalType": "ChannelID"
        },
        {
          "name": "nonce",
          "type": "uint64",
          "indexed": false,
          "internalType": "uint64"
        },
        {
          "name": "messageID",
          "type": "bytes32",
          "indexed": true,
          "internalType": "bytes32"
        },
        {
          "name": "payload",
          "type": "bytes",
          "indexed": false,
          "internalType": "bytes"
        }
      ],
      "anonymous": false
    },
    {
      "type": "event",
      "name": "OutboundMessageAccepted",
      "inputs": [
        {
          "name": "nonce",
          "type": "uint64",
          "indexed": false,
          "internalType": "uint64"
        },
        {
          "name": "payload",
          "type": "tuple",
          "indexed": false,
          "internalType": "struct Payload",
          "components": [
            {
              "name": "origin",
              "type": "address",
              "internalType": "address"
            },
            {
              "name": "assets",
              "type": "tuple[]",
              "internalType": "struct Asset[]",
              "components": [
                {
                  "name": "kind",
                  "type": "uint8",
                  "internalType": "uint8"
                },
                {
                  "name": "data",
                  "type": "bytes",
                  "internalType": "bytes"
                }
              ]
            },
            {
              "name": "xcm",
              "type": "tuple",
              "internalType": "struct Xcm",
              "components": [
                {
                  "name": "kind",
                  "type": "uint8",
                  "internalType": "uint8"
                },
                {
                  "name": "data",
                  "type": "bytes",
                  "internalType": "bytes"
                }
              ]
            },
            {
              "name": "claimer",
              "type": "bytes",
              "internalType": "bytes"
            },
            {
              "name": "value",
              "type": "uint128",
              "internalType": "uint128"
            },
            {
              "name": "executionFee",
              "type": "uint128",
              "internalType": "uint128"
            },
            {
              "name": "relayerFee",
              "type": "uint128",
              "internalType": "uint128"
            }
          ]
        }
      ],
      "anonymous": false
    },
    {
      "type": "event",
      "name": "PricingParametersChanged",
      "inputs": [],
      "anonymous": false
    },
    {
      "type": "event",
      "name": "TokenRegistrationSent",
      "inputs": [
        {
          "name": "token",
          "type": "address",
          "indexed": false,
          "internalType": "address"
        }
      ],
      "anonymous": false
    },
    {
      "type": "event",
      "name": "TokenSent",
      "inputs": [
        {
          "name": "token",
          "type": "address",
          "indexed": true,
          "internalType": "address"
        },
        {
          "name": "sender",
          "type": "address",
          "indexed": true,
          "internalType": "address"
        },
        {
          "name": "destinationChain",
          "type": "uint32",
          "indexed": true,
          "internalType": "ParaID"
        },
        {
          "name": "destinationAddress",
          "type": "tuple",
          "indexed": false,
          "internalType": "struct MultiAddress",
          "components": [
            {
              "name": "kind",
              "type": "uint8",
              "internalType": "enum Kind"
            },
            {
              "name": "data",
              "type": "bytes",
              "internalType": "bytes"
            }
          ]
        },
        {
          "name": "amount",
          "type": "uint128",
          "indexed": false,
          "internalType": "uint128"
        }
      ],
      "anonymous": false
    },
    {
      "type": "event",
      "name": "TokenTransferFeesChanged",
      "inputs": [],
      "anonymous": false
    },
    {
      "type": "event",
      "name": "Upgraded",
      "inputs": [
        {
          "name": "implementation",
          "type": "address",
          "indexed": true,
          "internalType": "address"
        }
      ],
      "anonymous": false
    },
    {
      "type": "error",
      "name": "AgentAlreadyExists",
      "inputs": []
    },
    {
      "type": "error",
      "name": "AgentDoesNotExist",
      "inputs": []
    },
    {
      "type": "error",
      "name": "AgentExecutionFailed",
      "inputs": [
        {
          "name": "returndata",
          "type": "bytes",
          "internalType": "bytes"
        }
      ]
    },
    {
      "type": "error",
      "name": "AlreadyInitialized",
      "inputs": []
    },
    {
      "type": "error",
      "name": "ChannelDoesNotExist",
      "inputs": []
    },
    {
      "type": "error",
      "name": "Disabled",
      "inputs": []
    },
    {
      "type": "error",
      "name": "ExceededMaximumValue",
      "inputs": []
    },
    {
      "type": "error",
      "name": "InsufficientEther",
      "inputs": []
    },
    {
      "type": "error",
      "name": "InsufficientGasLimit",
      "inputs": []
    },
    {
      "type": "error",
      "name": "InsufficientValue",
      "inputs": []
    },
    {
      "type": "error",
      "name": "InvalidAgentExecutionPayload",
      "inputs": []
    },
    {
      "type": "error",
      "name": "InvalidAmount",
      "inputs": []
    },
    {
      "type": "error",
      "name": "InvalidAmount",
      "inputs": []
    },
    {
      "type": "error",
      "name": "InvalidAsset",
      "inputs": []
    },
    {
      "type": "error",
      "name": "InvalidChannelUpdate",
      "inputs": []
    },
    {
      "type": "error",
      "name": "InvalidCodeHash",
      "inputs": []
    },
    {
      "type": "error",
      "name": "InvalidConstructorParams",
      "inputs": []
    },
    {
      "type": "error",
      "name": "InvalidContract",
      "inputs": []
    },
    {
      "type": "error",
      "name": "InvalidDestination",
      "inputs": []
    },
    {
      "type": "error",
      "name": "InvalidDestinationFee",
      "inputs": []
    },
    {
      "type": "error",
      "name": "InvalidNetwork",
      "inputs": []
    },
    {
      "type": "error",
      "name": "InvalidNonce",
      "inputs": []
    },
    {
      "type": "error",
      "name": "InvalidProof",
      "inputs": []
    },
    {
      "type": "error",
      "name": "InvalidToken",
      "inputs": []
    },
    {
      "type": "error",
      "name": "InvalidToken",
      "inputs": []
    },
    {
      "type": "error",
      "name": "NativeTransferFailed",
      "inputs": []
    },
    {
      "type": "error",
      "name": "NotEnoughGas",
      "inputs": []
    },
    {
      "type": "error",
      "name": "ShouldNotReachHere",
      "inputs": []
    },
    {
      "type": "error",
      "name": "TokenAlreadyRegistered",
      "inputs": []
    },
    {
      "type": "error",
      "name": "TokenMintFailed",
      "inputs": []
    },
    {
      "type": "error",
      "name": "TokenNotRegistered",
      "inputs": []
    },
    {
      "type": "error",
      "name": "TokenTransferFailed",
      "inputs": []
    },
    {
      "type": "error",
      "name": "TokenTransferFailed",
      "inputs": []
    },
    {
      "type": "error",
      "name": "TooManyAssets",
      "inputs": []
    },
    {
      "type": "error",
      "name": "Unauthorized",
      "inputs": []
    },
    {
      "type": "error",
      "name": "Unsupported",
      "inputs": []
    }
  ],
  "bytecode": {
    "object": "0x60c060405234801561000f575f5ffd5b5060405161474038038061474083398101604081905261002e91610060565b6001600160a01b0391821660a05216608052610091565b80516001600160a01b038116811461005b575f5ffd5b919050565b5f5f60408385031215610071575f5ffd5b61007a83610045565b915061008860208401610045565b90509250929050565b60805160a05161466b6100d55f395f81816105d7015261217901525f818161044f01528181610c8a01528181610d6801528181610f7d01526111fa015261466b5ff3fe608060405260043610610277575f3560e01c8063805ce31d1161014b578063be8d42c0116100c6578063de469bc71161007c578063f2e500b211610062578063f2e500b21461078e578063f906d309146107a1578063fe61cc49146107c0575f5ffd5b8063de469bc714610750578063df4ed8291461076f575f5ffd5b8063c66414c5116100ac578063c66414c5146106ff578063c9bd1e5b1461071e578063d58a8be41461073d575f5ffd5b8063be8d42c01461067d578063c536218f146106e0575f5ffd5b8063928bc49d1161011b57806398ea5fca1161010157806398ea5fca14610637578063b0a23d441461063f578063b39053c51461065e575f5ffd5b8063928bc49d146105f9578063988062ea14610618575f5ffd5b8063805ce31d146105585780638450a97c1461057a578063860929ee1461059957806390ffc4f9146105c6575f5ffd5b80633ae65d7e116101f557806346cd2751116101ab5780635c60da1b116101915780635c60da1b146105065780635e6dae261461051a5780636a64d9fb14610539575f5ffd5b806346cd2751146104d457806352054834146104f3575f5ffd5b8063423e69b6116101db578063423e69b61461043e57806342e3ccfa14610496578063439fab91146104b5575f5ffd5b80633ae65d7e146104005780633f8bb4d91461041f575f5ffd5b806327c1d3251161024a5780632dd677b1116102305780632dd677b11461038d5780632fb8ac58146103ac57806338004f69146103cb575f5ffd5b806327c1d3251461032e5780632a6c32291461034d575f5ffd5b80630705f4651461027b57806309824a80146102b05780630b617646146102c557806326aa101f146102ff575b5f5ffd5b348015610286575f5ffd5b5061029a61029536600461320a565b6107df565b6040516102a7919061324e565b60405180910390f35b6102c36102be366004613289565b610872565b005b3480156102d0575f5ffd5b506102d9610914565b604080519283526fffffffffffffffffffffffffffffffff9091166020830152016102a7565b34801561030a575f5ffd5b5061031e610319366004613289565b610988565b60405190151581526020016102a7565b348015610339575f5ffd5b506102c36103483660046132e9565b610a2a565b348015610358575f5ffd5b5061036c61036736600461320a565b610ae5565b6040805167ffffffffffffffff9384168152929091166020830152016102a7565b348015610398575f5ffd5b506102c36103a73660046132e9565b610b7c565b3480156103b7575f5ffd5b506102c36103c6366004613328565b610c07565b3480156103d6575f5ffd5b507e96e2f02350077f4ff1746770dbe5db3c04b7db2c8763c8fc21bf66b35e96ab5460ff1661029a565b34801561040b575f5ffd5b506102c361041a3660046132e9565b610ce7565b34801561042a575f5ffd5b506102c36104393660046132e9565b610d94565b348015610449575f5ffd5b506104717f000000000000000000000000000000000000000000000000000000000000000081565b60405173ffffffffffffffffffffffffffffffffffffffff90911681526020016102a7565b3480156104a1575f5ffd5b506102c36104b03660046132e9565b610e1f565b3480156104c0575f5ffd5b506102c36104cf3660046132e9565b610eaa565b3480156104df575f5ffd5b506102c36104ee3660046132e9565b610efc565b6102c361050136600461339e565b610fa9565b348015610511575f5ffd5b50610471611048565b348015610525575f5ffd5b5061047161053436600461320a565b611076565b348015610544575f5ffd5b506102c3610553366004613328565b611080565b348015610563575f5ffd5b5061056c61110d565b6040519081526020016102a7565b348015610585575f5ffd5b506102c36105943660046132e9565b611179565b3480156105a4575f5ffd5b506105ad611226565b60405167ffffffffffffffff90911681526020016102a7565b3480156105d1575f5ffd5b506104717f000000000000000000000000000000000000000000000000000000000000000081565b348015610604575f5ffd5b5061056c610613366004613427565b611292565b348015610623575f5ffd5b506102c36106323660046132e9565b611360565b6102c36113eb565b34801561064a575f5ffd5b506102c36106593660046132e9565b611425565b348015610669575f5ffd5b506102c361067836600461320a565b6114b0565b348015610688575f5ffd5b5061056c610697366004613289565b73ffffffffffffffffffffffffffffffffffffffff165f9081527f8d3b47662f045c362f825b520d7ddf7a0e5f6703a828606de6840b3652b8c22e602052604090206001015490565b3480156106eb575f5ffd5b506102c36106fa3660046132e9565b61152b565b34801561070a575f5ffd5b5061031e61071936600461348f565b6115b6565b348015610729575f5ffd5b506102c36107383660046132e9565b6115ff565b6102c361074b3660046134b8565b61168a565b34801561075b575f5ffd5b506102c361076a366004613569565b6116fa565b34801561077a575f5ffd5b506102c3610789366004613608565b611919565b6102c361079c3660046136a1565b611e53565b3480156107ac575f5ffd5b506102c36107bb3660046132e9565b611ef9565b3480156107cb575f5ffd5b506104716107da36600461320a565b611f84565b6040517f0705f465000000000000000000000000000000000000000000000000000000008152600481018290525f9073__$f682edc2c31d607e57220448426473ba29$__90630705f46590602401602060405180830381865af4158015610848573d5f5f3e3d5ffd5b505050506040513d601f19601f8201168201806040525081019061086c9190613765565b92915050565b5f5c1561087d575f5ffd5b60015f5d6040517f09824a8000000000000000000000000000000000000000000000000000000000815273ffffffffffffffffffffffffffffffffffffffff8216600482015273__$f682edc2c31d607e57220448426473ba29$__906309824a80906024015f6040518083038186803b1580156108f8575f5ffd5b505af415801561090a573d5f5f3e3d5ffd5b505050505f5f5d50565b5f5f73__$f682edc2c31d607e57220448426473ba29$__630b6176466040518163ffffffff1660e01b81526004016040805180830381865af415801561095c573d5f5f3e3d5ffd5b505050506040513d601f19601f820116820180604052508101906109809190613783565b915091509091565b6040517f26aa101f00000000000000000000000000000000000000000000000000000000815273ffffffffffffffffffffffffffffffffffffffff821660048201525f9073__$f682edc2c31d607e57220448426473ba29$__906326aa101f90602401602060405180830381865af4158015610a06573d5f5f3e3d5ffd5b505050506040513d601f19601f8201168201806040525081019061086c91906137b2565b333014610a63576040517f82b4290000000000000000000000000000000000000000000000000000000000815260040160405180910390fd5b6040517f5b2e9c4c00000000000000000000000000000000000000000000000000000000815273__$2c7000d57488380435ee91a3241476da57$__90635b2e9c4c90610ab59085908590600401613818565b5f6040518083038186803b158015610acb575f5ffd5b505af4158015610add573d5f5f3e3d5ffd5b505050505050565b6040517f2a6c3229000000000000000000000000000000000000000000000000000000008152600481018290525f90819073__$f682edc2c31d607e57220448426473ba29$__90632a6c3229906024016040805180830381865af4158015610b4f573d5f5f3e3d5ffd5b505050506040513d601f19601f82011682018060405250810190610b73919061382b565b91509150915091565b333014610bb5576040517f82b4290000000000000000000000000000000000000000000000000000000000815260040160405180910390fd5b6040517f8257f3d500000000000000000000000000000000000000000000000000000000815273__$4ba23f30f6688e81c2131e9db5da23190c$__90638257f3d590610ab59085908590600401613818565b333014610c40576040517f82b4290000000000000000000000000000000000000000000000000000000000815260040160405180910390fd5b6040517ffe1aa59d00000000000000000000000000000000000000000000000000000000815273__$4ba23f30f6688e81c2131e9db5da23190c$__9063fe1aa59d90610cb69086907f00000000000000000000000000000000000000000000000000000000000000009087908790600401613858565b5f6040518083038186803b158015610ccc575f5ffd5b505af4158015610cde573d5f5f3e3d5ffd5b50505050505050565b333014610d20576040517f82b4290000000000000000000000000000000000000000000000000000000000815260040160405180910390fd5b6040517f6552967500000000000000000000000000000000000000000000000000000000815273__$4ba23f30f6688e81c2131e9db5da23190c$__90636552967590610ab5907f00000000000000000000000000000000000000000000000000000000000000009086908690600401613897565b333014610dcd576040517f82b4290000000000000000000000000000000000000000000000000000000000815260040160405180910390fd5b6040517f2539464500000000000000000000000000000000000000000000000000000000815273__$2c7000d57488380435ee91a3241476da57$__90632539464590610ab59085908590600401613818565b333014610e58576040517f82b4290000000000000000000000000000000000000000000000000000000000815260040160405180910390fd5b6040517fae8a4d9800000000000000000000000000000000000000000000000000000000815273__$4ba23f30f6688e81c2131e9db5da23190c$__9063ae8a4d9890610ab59085908590600401613818565b6040517f439fab9100000000000000000000000000000000000000000000000000000000815273__$9b0b57e86aa3636dc5b2ec8d30bbf2c070$__9063439fab9190610ab59085908590600401613818565b333014610f35576040517f82b4290000000000000000000000000000000000000000000000000000000000815260040160405180910390fd5b6040517f6552967500000000000000000000000000000000000000000000000000000000815273__$2c7000d57488380435ee91a3241476da57$__90636552967590610ab5907f00000000000000000000000000000000000000000000000000000000000000009086908690600401613897565b5f5c15610fb4575f5ffd5b60015f5d6040517f99056fcc00000000000000000000000000000000000000000000000000000000815273__$f682edc2c31d607e57220448426473ba29$__906399056fcc9061101290889033908990899089908990600401613926565b5f6040518083038186803b158015611028575f5ffd5b505af415801561103a573d5f5f3e3d5ffd5b505050505f5f5d5050505050565b5f6110717f360894a13ba1a3210667c828492db98dca3e2076cc3735a920a3ca505d382bbc5490565b905090565b5f61086c82612011565b3330146110b9576040517f82b4290000000000000000000000000000000000000000000000000000000000815260040160405180910390fd5b6040517f741fad8800000000000000000000000000000000000000000000000000000000815273__$2c7000d57488380435ee91a3241476da57$__9063741fad8890610cb6908690869086906004016139ee565b5f73__$f682edc2c31d607e57220448426473ba29$__63805ce31d6040518163ffffffff1660e01b8152600401602060405180830381865af4158015611155573d5f5f3e3d5ffd5b505050506040513d601f19601f820116820180604052508101906110719190613a07565b3330146111b2576040517f82b4290000000000000000000000000000000000000000000000000000000000815260040160405180910390fd5b6040517fc31308d100000000000000000000000000000000000000000000000000000000815273__$2c7000d57488380435ee91a3241476da57$__9063c31308d190610ab5907f00000000000000000000000000000000000000000000000000000000000000009086908690600401613897565b5f73__$c8bcda48dcb7d20aec0215b77843d9ec96$__63fd10ebe56040518163ffffffff1660e01b8152600401602060405180830381865af415801561126e573d5f5f3e3d5ffd5b505050506040513d601f19601f820116820180604052508101906110719190613a1e565b6040517f928bc49d00000000000000000000000000000000000000000000000000000000815273ffffffffffffffffffffffffffffffffffffffff8416600482015263ffffffff831660248201526fffffffffffffffffffffffffffffffff821660448201525f9073__$f682edc2c31d607e57220448426473ba29$__9063928bc49d90606401602060405180830381865af4158015611334573d5f5f3e3d5ffd5b505050506040513d601f19601f820116820180604052508101906113589190613a07565b949350505050565b333014611399576040517f82b4290000000000000000000000000000000000000000000000000000000000815260040160405180910390fd5b6040517f017b731100000000000000000000000000000000000000000000000000000000815273__$4ba23f30f6688e81c2131e9db5da23190c$__9063017b731190610ab59085908590600401613818565b604080513381523460208201527f2da466a7b24304f47e87fa2e1e5a81b9831ce54fec19055ce277ca2f39ba42c4910160405180910390a1565b33301461145e576040517f82b4290000000000000000000000000000000000000000000000000000000000815260040160405180910390fd5b6040517f0c86ea4600000000000000000000000000000000000000000000000000000000815273__$2c7000d57488380435ee91a3241476da57$__90630c86ea4690610ab59085908590600401613818565b6040517f4a283cd90000000000000000000000000000000000000000000000000000000081526004810182905273__$c8bcda48dcb7d20aec0215b77843d9ec96$__90634a283cd9906024015f6040518083038186803b158015611512575f5ffd5b505af4158015611524573d5f5f3e3d5ffd5b5050505050565b333014611564576040517f82b4290000000000000000000000000000000000000000000000000000000000815260040160405180910390fd5b6040517fae8a4d9800000000000000000000000000000000000000000000000000000000815273__$2c7000d57488380435ee91a3241476da57$__9063ae8a4d9890610ab59085908590600401613818565b66ffffffffffffff600882901c165f9081527e96e2f02350077f4ff1746770dbe5db3c04b7db2c8763c8fc21bf66b35e96af6020526040812054600160ff84161b16151561086c565b333014611638576040517f82b4290000000000000000000000000000000000000000000000000000000000815260040160405180910390fd5b6040517f8257f3d500000000000000000000000000000000000000000000000000000000815273__$2c7000d57488380435ee91a3241476da57$__90638257f3d590610ab59085908590600401613818565b5f5c15611695575f5ffd5b60015f5d60ff8316156116d4576040517f86eab41b00000000000000000000000000000000000000000000000000000000815260040160405180910390fd5b6116f18460ff851680156116ea576116ea613221565b848461208f565b5f5f5d50505050565b5f5c15611705575f5ffd5b60015f5d7e96e2f02350077f4ff1746770dbe5db3c04b7db2c8763c8fc21bf66b35e96ab61176b61173c604088016020890161348f565b66ffffffffffffff600882901c165f908152600484016020526040902054600160ff9092169190911b16151590565b156117a2576040517f756688fe00000000000000000000000000000000000000000000000000000000815260040160405180910390fd5b5f866040516020016117b49190613ad7565b6040516020818303038152906040528051906020012090506118138760200160208101906117e2919061348f565b66ffffffffffffff600882901c165f90815260048501602052604090208054600160ff9093169290921b9091179055565b5f6118518787808060200260200160405190810160405280939291908181526020018383602002808284375f920191909152508692506120ed915050565b905061185f8186600161212f565b611895576040517f09bde33900000000000000000000000000000000000000000000000000000000815260040160405180910390fd5b5f61189f89612208565b90506118b160408a0160208b0161348f565b67ffffffffffffffff167f8856ab63954e6c2938803a4654fb704c8779757e7bfdbe94a578e341ec637a958a604001358388604051611903939291909283529015156020830152604082015260600190565b60405180910390a2505050505f5f5d5050505050565b5f5c15611924575f5ffd5b60015f5d5f5a90505f61193786356122c6565b805490915061195690610100900467ffffffffffffffff166001613c1b565b67ffffffffffffffff16611970604088016020890161348f565b67ffffffffffffffff16146119b1576040517f756688fe00000000000000000000000000000000000000000000000000000000815260040160405180910390fd5b8054610100900467ffffffffffffffff168160016119ce83613c3b565b91906101000a81548167ffffffffffffffff021916908367ffffffffffffffff160217905550505f86604051602001611a079190613c89565b6040516020818303038152906040528051906020012090505f611a5d8787808060200260200160405190810160405280939291908181526020018383602002808284375f920191909152508692506120ed915050565b9050611a6a81865f61212f565b611aa0576040517f09bde33900000000000000000000000000000000000000000000000000000000815260040160405180910390fd5b5f611ab160a08a0160808b0161348f565b67ffffffffffffffff169050611ac961271082613d3d565b60405a611ad790603f613d50565b611ae19190613d67565b1015611b19576040517fdd629f8600000000000000000000000000000000000000000000000000000000815260040160405180910390fd5b60015f611b2c60608c0160408d01613d9f565b600b811115611b3d57611b3d613221565b03611bac5730638450a97c83611b5660608e018e613db8565b6040518463ffffffff1660e01b8152600401611b73929190613818565b5f604051808303815f88803b158015611b8a575f5ffd5b5087f193505050508015611b9c575060015b611ba757505f611d73565b611d73565b6005611bbe60608c0160408d01613d9f565b600b811115611bcf57611bcf613221565b03611be8573063c9bd1e5b83611b5660608e018e613db8565b6001611bfa60608c0160408d01613d9f565b600b811115611c0b57611c0b613221565b03611c245730633f8bb4d983611b5660608e018e613db8565b6007611c3660608c0160408d01613d9f565b600b811115611c4757611c47613221565b03611c6057306327c1d32583611b5660608e018e613db8565b6008611c7260608c0160408d01613d9f565b600b811115611c8357611c83613221565b03611c9c573063b0a23d4483611b5660608e018e613db8565b6009611cae60608c0160408d01613d9f565b600b811115611cbf57611cbf613221565b03611cd857306346cd275183611b5660608e018e613db8565b600a611cea60608c0160408d01613d9f565b600b811115611cfb57611cfb613221565b03611d14573063c536218f83611b5660608e018e613db8565b600b611d2660608c0160408d01613d9f565b600b811115611d3757611d37613221565b03611d705730636a64d9fb838c35611d5260608f018f613db8565b6040518563ffffffff1660e01b8152600401611b73939291906139ee565b505f5b5f5a611d7f9088613e19565b611d87612342565b611d919190613d3d565b90505f611da23a8d60a0013561235a565b611dac9083613d50565b90505f611dc6611dc060c08f013584613d3d565b4761235a565b9050611dd0612371565b811115611de157611de1338261237e565b8c60e001358d5f01357f617fdb0cb78f01551a192a3673208ec5eb09f20a90acf673c63a0dcb11745a7a8f6020016020810190611e1e919061348f565b6040805167ffffffffffffffff909216825288151560208301520160405180910390a35050505050505050505f5f5d50505050565b5f5c15611e5e575f5ffd5b60015f5d6040517ffe65a38800000000000000000000000000000000000000000000000000000000815273__$c8bcda48dcb7d20aec0215b77843d9ec96$__9063fe65a38890611ec0908b908b908b908b908b908b908b908b90600401613e2c565b5f6040518083038186803b158015611ed6575f5ffd5b505af4158015611ee8573d5f5f3e3d5ffd5b505050505f5f5d5050505050505050565b333014611f32576040517f82b4290000000000000000000000000000000000000000000000000000000000815260040160405180910390fd5b6040517f2539464500000000000000000000000000000000000000000000000000000000815273__$4ba23f30f6688e81c2131e9db5da23190c$__90632539464590610ab59085908590600401613818565b6040517ffe61cc49000000000000000000000000000000000000000000000000000000008152600481018290525f9073__$f682edc2c31d607e57220448426473ba29$__9063fe61cc4990602401602060405180830381865af4158015611fed573d5f5f3e3d5ffd5b505050506040513d601f19601f8201168201806040525081019061086c9190613f16565b5f8181527e96e2f02350077f4ff1746770dbe5db3c04b7db2c8763c8fc21bf66b35e96ad602052604090205473ffffffffffffffffffffffffffffffffffffffff168061208a576040517fd3227c9b00000000000000000000000000000000000000000000000000000000815260040160405180910390fd5b919050565b5f61209a85856123c5565b90506120a58561249d565b604080515f8082526020820190925261152491309184916120d6565b60608152602001906001900390816120c15790505b5060405180602001604052805f81525087876125b1565b5f81815b84518110156121275761211d8286838151811061211057612110613f5e565b60200260200101516128e3565b91506001016120f1565b509392505050565b6040517f2db726160000000000000000000000000000000000000000000000000000000081525f9073__$814b009df1eea0617c5279b3ba0333b56a$__90632db72616906121c9907f0000000000000000000000000000000000000000000000000000000000000000907fea0300000000000000000000000000000000000000000000000000000000000090899089908990600401614079565b602060405180830381865af41580156121e4573d5f5f3e3d5ffd5b505050506040513d601f19601f8201168201806040525081019061135891906137b2565b5f6001815b61221a60608501856142d0565b90508110156122bf5761225c61223360608601866142d0565b8381811061224357612243613f5e565b90506020028101906122559190614334565b853561290f565b6122b757612270604085016020860161348f565b67ffffffffffffffff167fa6dc208277bb3da3666e7305baf550db2daf26f8f386a431a4b27cc7a02965a2826040516122ab91815260200190565b60405180910390a25f91505b60010161220d565b5092915050565b5f8181527e96e2f02350077f4ff1746770dbe5db3c04b7db2c8763c8fc21bf66b35e96ac60205260409020600181015473ffffffffffffffffffffffffffffffffffffffff1661208a576040517f6ddd9da900000000000000000000000000000000000000000000000000000000815260040160405180910390fd5b5f61234e366010613d50565b61107190618b72613d3d565b5f818310612368578161236a565b825b9392505050565b5f6110713a615208613d50565b5f5f5f5f5f85875af19050806123c0576040517ff4b3b1bc00000000000000000000000000000000000000000000000000000000815260040160405180910390fd5b505050565b604080518082019091525f8152606060208201526040518060400160405280600160ff16815260200160405180604001604052808673ffffffffffffffffffffffffffffffffffffffff168152602001855f81111561242657612426613221565b60ff1690526040516124669190602001815173ffffffffffffffffffffffffffffffffffffffff16815260209182015160ff169181019190915260400190565b604080517fffffffffffffffffffffffffffffffffffffffffffffffffffffffffffffffe081840301815291905290529392505050565b6124bc8173ffffffffffffffffffffffffffffffffffffffff16612b47565b6124f2576040517fc1ab6dc100000000000000000000000000000000000000000000000000000000815260040160405180910390fd5b73ffffffffffffffffffffffffffffffffffffffff81165f9081527f8d3b47662f045c362f825b520d7ddf7a0e5f6703a828606de6840b3652b8c22e60208190526040909120805460ff16801561254d575061254d81612ba7565b15612584576040517f7d4fffb200000000000000000000000000000000000000000000000000000000815260040160405180910390fd5b80547fffffffffffffffffffffffffffffffffffffffffffffffffffffffffffffff001660011790555050565b6125b9612bbb565b6fffffffffffffffffffffffffffffffff341115612603576040517f30e972ad00000000000000000000000000000000000000000000000000000000815260040160405180910390fd5b61260d8183614370565b6fffffffffffffffffffffffffffffffff16341015612658576040517f1101129400000000000000000000000000000000000000000000000000000000815260040160405180910390fd5b5f6126827f81c5ab2571199e3188135178f3c2c8e2d268be1313d029b30f534fa579b69b79612011565b90506126a473ffffffffffffffffffffffffffffffffffffffff82163461237e565b8451600810156126e0576040517fdf8153c700000000000000000000000000000000000000000000000000000000815260040160405180910390fd5b5f855167ffffffffffffffff8111156126fb576126fb613f31565b60405190808252806020026020018201604052801561274057816020015b604080518082019091525f8152606060208201528152602001906001900390816127195790505b5090505f5b86518110156127955761277087828151811061276357612763613f5e565b6020026020010151612c2d565b82828151811061278257612782613f5e565b6020908102919091010152600101612745565b507e96e2f02350077f4ff1746770dbe5db3c04b7db2c8763c8fc21bf66b35e96b0547e96e2f02350077f4ff1746770dbe5db3c04b7db2c8763c8fc21bf66b35e96ab906127ed9067ffffffffffffffff166001613c1b565b816005015f6101000a81548167ffffffffffffffff021916908367ffffffffffffffff1602179055505f6040518060e001604052808b73ffffffffffffffffffffffffffffffffffffffff1681526020018481526020018a815260200188815260200186883461285d9190614398565b6128679190614398565b6fffffffffffffffffffffffffffffffff908116825288811660208301528716604091820152600584015490519192507f550e2067494b1736ea5573f2d19cdc0ac95b410fff161bf16f11c6229655ec9c916128cf9167ffffffffffffffff1690849061442d565b60405180910390a150505050505050505050565b5f8183106128fd575f82815260208490526040902061236a565b5f83815260208390526040902061236a565b5f615dc0612923604085016020860161348f565b67ffffffffffffffff166129379190613d3d565b60405a61294590603f613d50565b61294f9190613d67565b1015612987576040517f60ee124700000000000000000000000000000000000000000000000000000000815260040160405180910390fd5b5f61299560208501856145c5565b60ff1603612a20573063f906d3096129b3604086016020870161348f565b67ffffffffffffffff166129ca6040870187613db8565b6040518463ffffffff1660e01b81526004016129e7929190613818565b5f604051808303815f88803b1580156129fe575f5ffd5b5087f193505050508015612a10575060015b612a1b57505f61086c565b612b3e565b6001612a2f60208501856145c5565b60ff1603612a4d5730632dd677b16129b3604086016020870161348f565b6002612a5c60208501856145c5565b60ff1603612a7a5730633ae65d7e6129b3604086016020870161348f565b6003612a8960208501856145c5565b60ff1603612aa757306342e3ccfa6129b3604086016020870161348f565b6004612ab660208501856145c5565b60ff1603612ad4573063988062ea6129b3604086016020870161348f565b6005612ae360208501856145c5565b60ff1603612b375730632fb8ac58612b01604086016020870161348f565b67ffffffffffffffff1684612b196040880188613db8565b6040518563ffffffff1660e01b81526004016129e7939291906139ee565b505f61086c565b50600192915050565b5f73ffffffffffffffffffffffffffffffffffffffff82163f1580159061086c57505073ffffffffffffffffffffffffffffffffffffffff163f7fc5d2460186f7233c927e7db2dcc703c0e500b653ca82273b7bfad8045d85a470141590565b5f612bb482600101541590565b1592915050565b7e96e2f02350077f4ff1746770dbe5db3c04b7db2c8763c8fc21bf66b35e96ab80545f9060ff166001811115612bf357612bf3613221565b14612c2a576040517f75884cda00000000000000000000000000000000000000000000000000000000815260040160405180910390fd5b50565b604080518082019091525f815260606020820152602082015160ff165f819003612c7f575f5f84806020019051810190612c6791906145e0565b9250925050612c768282612cb1565b95945050505050565b6040517fc891add200000000000000000000000000000000000000000000000000000000815260040160405180910390fd5b604080518082019091525f8152606060208201525f7f8d3b47662f045c362f825b520d7ddf7a0e5f6703a828606de6840b3652b8c22e73ffffffffffffffffffffffffffffffffffffffff85165f90815260208290526040902080549192509060ff16612d4a576040517f259ba1ad00000000000000000000000000000000000000000000000000000000815260040160405180910390fd5b5f846fffffffffffffffffffffffffffffffff1611612d95576040517f2c5211c600000000000000000000000000000000000000000000000000000000815260040160405180910390fd5b6001810154612dd8576001820154612dc59073ffffffffffffffffffffffffffffffffffffffff16863387612eb8565b612dcf8585612f92565b9250505061086c565b612de181612ba7565b15612e86576040517f9dc29fac0000000000000000000000000000000000000000000000000000000081523360048201526fffffffffffffffffffffffffffffffff8516602482015273ffffffffffffffffffffffffffffffffffffffff861690639dc29fac906044015f604051808303815f87803b158015612e62575f5ffd5b505af1158015612e74573d5f5f3e3d5ffd5b50505050612dcf81600101548561300f565b6040517f6890662900000000000000000000000000000000000000000000000000000000815260040160405180910390fd5b612ed78373ffffffffffffffffffffffffffffffffffffffff16612b47565b612f0d576040517fc1ab6dc100000000000000000000000000000000000000000000000000000000815260040160405180910390fd5b806fffffffffffffffffffffffffffffffff165f03612f58576040517f2c5211c600000000000000000000000000000000000000000000000000000000815260040160405180910390fd5b612f8c73ffffffffffffffffffffffffffffffffffffffff841683866fffffffffffffffffffffffffffffffff8516613072565b50505050565b604080518082019091525f8152606060208201526040805180820182525f81528151808301835273ffffffffffffffffffffffffffffffffffffffff86168082526fffffffffffffffffffffffffffffffff8087166020938401908152855180850193909352511693810193909352909190820190606001612466565b6040805180820182525f8152606060208083018290528351808501855260018152845180860186528781526fffffffffffffffffffffffffffffffff87811691840191825286518085018a90529151169581019590955292939083019101612466565b60405173ffffffffffffffffffffffffffffffffffffffff80851660248301528316604482015260648101829052612f8c908590608401604080517fffffffffffffffffffffffffffffffffffffffffffffffffffffffffffffffe08184030181529190526020810180517bffffffffffffffffffffffffffffffffffffffffffffffffffffffff167f23b872dd000000000000000000000000000000000000000000000000000000001790525f5f8373ffffffffffffffffffffffffffffffffffffffff1683604051613146919061461f565b5f604051808303815f865af19150503d805f811461317f576040519150601f19603f3d011682016040523d82523d5f602084013e613184565b606091505b50915091505f8280156131af5750815115806131af5750818060200190518101906131af91906137b2565b90508015806131d3575073ffffffffffffffffffffffffffffffffffffffff85163b155b15611524576040517f045c4b0200000000000000000000000000000000000000000000000000000000815260040160405180910390fd5b5f6020828403121561321a575f5ffd5b5035919050565b7f4e487b71000000000000000000000000000000000000000000000000000000005f52602160045260245ffd5b602081016002831061326257613262613221565b91905290565b73ffffffffffffffffffffffffffffffffffffffff81168114612c2a575f5ffd5b5f60208284031215613299575f5ffd5b813561236a81613268565b5f5f83601f8401126132b4575f5ffd5b50813567ffffffffffffffff8111156132cb575f5ffd5b6020830191508360208285010111156132e2575f5ffd5b9250929050565b5f5f602083850312156132fa575f5ffd5b823567ffffffffffffffff811115613310575f5ffd5b61331c858286016132a4565b90969095509350505050565b5f5f5f6040848603121561333a575f5ffd5b83359250602084013567ffffffffffffffff811115613357575f5ffd5b613363868287016132a4565b9497909650939450505050565b63ffffffff81168114612c2a575f5ffd5b6fffffffffffffffffffffffffffffffff81168114612c2a575f5ffd5b5f5f5f5f5f60a086880312156133b2575f5ffd5b85356133bd81613268565b945060208601356133cd81613370565b9350604086013567ffffffffffffffff8111156133e8575f5ffd5b8601604081890312156133f9575f5ffd5b9250606086013561340981613381565b9150608086013561341981613381565b809150509295509295909350565b5f5f5f60608486031215613439575f5ffd5b833561344481613268565b9250602084013561345481613370565b9150604084013561346481613381565b809150509250925092565b67ffffffffffffffff81168114612c2a575f5ffd5b803561208a8161346f565b5f6020828403121561349f575f5ffd5b813561236a8161346f565b60ff81168114612c2a575f5ffd5b5f5f5f5f608085870312156134cb575f5ffd5b84356134d681613268565b935060208501356134e6816134aa565b925060408501356134f681613381565b9150606085013561350681613381565b939692955090935050565b5f5f83601f840112613521575f5ffd5b50813567ffffffffffffffff811115613538575f5ffd5b6020830191508360208260051b85010111156132e2575f5ffd5b5f6101408284031215613563575f5ffd5b50919050565b5f5f5f5f5f6080868803121561357d575f5ffd5b853567ffffffffffffffff811115613593575f5ffd5b8601608081890312156135a4575f5ffd5b9450602086013567ffffffffffffffff8111156135bf575f5ffd5b6135cb88828901613511565b909550935050604086013567ffffffffffffffff8111156135ea575f5ffd5b6135f688828901613552565b95989497509295606001359392505050565b5f5f5f5f6060858703121561361b575f5ffd5b843567ffffffffffffffff811115613631575f5ffd5b85016101008188031215613643575f5ffd5b9350602085013567ffffffffffffffff81111561365e575f5ffd5b61366a87828801613511565b909450925050604085013567ffffffffffffffff811115613689575f5ffd5b61369587828801613552565b91505092959194509250565b5f5f5f5f5f5f5f5f60a0898b0312156136b8575f5ffd5b883567ffffffffffffffff8111156136ce575f5ffd5b6136da8b828c016132a4565b909950975050602089013567ffffffffffffffff8111156136f9575f5ffd5b6137058b828c01613511565b909750955050604089013567ffffffffffffffff811115613724575f5ffd5b6137308b828c016132a4565b909550935050606089013561374481613381565b9150608089013561375481613381565b809150509295985092959890939650565b5f60208284031215613775575f5ffd5b81516002811061236a575f5ffd5b5f5f60408385031215613794575f5ffd5b825160208401519092506137a781613381565b809150509250929050565b5f602082840312156137c2575f5ffd5b8151801515811461236a575f5ffd5b81835281816020850137505f602082840101525f60207fffffffffffffffffffffffffffffffffffffffffffffffffffffffffffffffe0601f840116840101905092915050565b602081525f6113586020830184866137d1565b5f5f6040838503121561383c575f5ffd5b82516138478161346f565b60208401519092506137a78161346f565b84815273ffffffffffffffffffffffffffffffffffffffff84166020820152606060408201525f61388d6060830184866137d1565b9695505050505050565b73ffffffffffffffffffffffffffffffffffffffff84168152604060208201525f612c766040830184866137d1565b5f5f83357fffffffffffffffffffffffffffffffffffffffffffffffffffffffffffffffe18436030181126138f9575f5ffd5b830160208101925035905067ffffffffffffffff811115613918575f5ffd5b8036038213156132e2575f5ffd5b73ffffffffffffffffffffffffffffffffffffffff8716815273ffffffffffffffffffffffffffffffffffffffff8616602082015263ffffffff8516604082015260c060608201525f843560038110158015613980575f5ffd5b5060c083015261399360208601866138c6565b604060e08501526139a9610100850182846137d1565b925050506fffffffffffffffffffffffffffffffff841660808301526139e360a08301846fffffffffffffffffffffffffffffffff169052565b979650505050505050565b838152604060208201525f612c766040830184866137d1565b5f60208284031215613a17575f5ffd5b5051919050565b5f60208284031215613a2e575f5ffd5b815161236a8161346f565b5f5f83357fffffffffffffffffffffffffffffffffffffffffffffffffffffffffffffffe1843603018112613a6c575f5ffd5b830160208101925035905067ffffffffffffffff811115613a8b575f5ffd5b8060051b36038213156132e2575f5ffd5b5f82357fffffffffffffffffffffffffffffffffffffffffffffffffffffffffffffffa1833603018112613ace575f5ffd5b90910192915050565b60208082528235828201525f9060a0830190840135613af58161346f565b67ffffffffffffffff81166040850152505f6040850135905080606085015250613b226060850185613a39565b6080808601528281845260c08601905060c08260051b8701019350825f5b83811015613be1577fffffffffffffffffffffffffffffffffffffffffffffffffffffffffffffff40888703018352613b798286613a9c565b8035613b84816134aa565b60ff1687526020810135613b978161346f565b67ffffffffffffffff166020880152613bb360408201826138c6565b915060606040890152613bca6060890183836137d1565b975050506020928301929190910190600101613b40565b5093979650505050505050565b7f4e487b71000000000000000000000000000000000000000000000000000000005f52601160045260245ffd5b67ffffffffffffffff818116838216019081111561086c5761086c613bee565b5f67ffffffffffffffff821667ffffffffffffffff8103613c5e57613c5e613bee565b60010192915050565b8035600c811061208a575f5ffd5b600c8110613c8557613c85613221565b9052565b60208082528235828201525f90830135613ca28161346f565b67ffffffffffffffff8116604084015250613cbf60408401613c67565b613ccc6060840182613c75565b50613cda60608401846138c6565b6101006080850152613cf1610120850182846137d1565b915050613d0060808501613484565b67ffffffffffffffff811660a08501525060a084013560c08481019190915284013560e08085019190915290930135610100909201919091525090565b8082018082111561086c5761086c613bee565b808202811582820484141761086c5761086c613bee565b5f82613d9a577f4e487b71000000000000000000000000000000000000000000000000000000005f52601260045260245ffd5b500490565b5f60208284031215613daf575f5ffd5b61236a82613c67565b5f5f83357fffffffffffffffffffffffffffffffffffffffffffffffffffffffffffffffe1843603018112613deb575f5ffd5b83018035915067ffffffffffffffff821115613e05575f5ffd5b6020019150368190038213156132e2575f5ffd5b8181038181111561086c5761086c613bee565b60a081525f613e3f60a083018a8c6137d1565b82810360208401528088825260208201905060208960051b8301018a5f5b8b811015613eb9577fffffffffffffffffffffffffffffffffffffffffffffffffffffffffffffffe0858403018452613e96828e6138c6565b613ea18582846137d1565b60209687019690955093909301925050600101613e5d565b50508481036040860152613ece81898b6137d1565b9350505050613ef160608301856fffffffffffffffffffffffffffffffff169052565b6fffffffffffffffffffffffffffffffff831660808301529998505050505050505050565b5f60208284031215613f26575f5ffd5b815161236a81613268565b7f4e487b71000000000000000000000000000000000000000000000000000000005f52604160045260245ffd5b7f4e487b71000000000000000000000000000000000000000000000000000000005f52603260045260245ffd5b8183525f7f07ffffffffffffffffffffffffffffffffffffffffffffffffffffffffffffff831115613fbb575f5ffd5b8260051b80836020870137939093016020019392505050565b80358252602080820135908301525f613ff06040830183613a39565b60606040860152612c76606086018284613f8b565b8035614010816134aa565b60ff168252602081013561402381613370565b63ffffffff1660208301526040818101359083015260608101356140468161346f565b67ffffffffffffffff166060830152608081013561406381613370565b63ffffffff16608083015260a090810135910152565b73ffffffffffffffffffffffffffffffffffffffff861681527fffffffff000000000000000000000000000000000000000000000000000000008516602082015283604082015260a060608201525f83357fffffffffffffffffffffffffffffffffffffffffffffffffffffffffffffff618536030181126140f9575f5ffd5b61014060a0840152840180356101e0840152602081013561020084015260408101356102208401526060810135610240840152610280830161413e6080830183613a39565b925060a0610260860152818383526102a0860190506102a08460051b8701019250815f5b85811015614213577ffffffffffffffffffffffffffffffffffffffffffffffffffffffffffffffd6088860301835261419b8285613a9c565b8035865260208101357fffffffff0000000000000000000000000000000000000000000000000000000081168082146141d2575f5ffd5b6020880152506141e560408201826138c6565b9150606060408801526141fc6060880183836137d1565b965050506020928301929190910190600101614162565b505050506142246020870187613a9c565b91507fffffffffffffffffffffffffffffffffffffffffffffffffffffffffffffff608482030160c085015261425a8183613fd4565b91505061426d60e0840160408701614005565b61427b610100860186613a39565b7fffffffffffffffffffffffffffffffffffffffffffffffffffffffffffffff60858403016101a08601526142b1838284613f8b565b6101208801356101c08701528615156080870152935061388d92505050565b5f5f83357fffffffffffffffffffffffffffffffffffffffffffffffffffffffffffffffe1843603018112614303575f5ffd5b83018035915067ffffffffffffffff82111561431d575f5ffd5b6020019150600581901b36038213156132e2575f5ffd5b5f82357fffffffffffffffffffffffffffffffffffffffffffffffffffffffffffffffa1833603018112614366575f5ffd5b9190910192915050565b6fffffffffffffffffffffffffffffffff818116838216019081111561086c5761086c613bee565b6fffffffffffffffffffffffffffffffff828116828216039081111561086c5761086c613bee565b5f81518084528060208401602086015e5f6020828601015260207fffffffffffffffffffffffffffffffffffffffffffffffffffffffffffffffe0601f83011685010191505092915050565b60ff81511682525f60208201516040602085015261135860408501826143c0565b67ffffffffffffffff83168152604060208201525f610120820173ffffffffffffffffffffffffffffffffffffffff8451166040840152602084015160e06060850152818151808452610140860191506101408160051b87010193506020830192505f5b818110156144e0577ffffffffffffffffffffffffffffffffffffffffffffffffffffffffffffffec08786030183526144cb85855161440c565b94506020938401939290920191600101614491565b5050505060408401517fffffffffffffffffffffffffffffffffffffffffffffffffffffffffffffffc084830301608085015261451d828261440c565b91505060608401517fffffffffffffffffffffffffffffffffffffffffffffffffffffffffffffffc08483030160a085015261455982826143c0565b915050608084015161457f60c08501826fffffffffffffffffffffffffffffffff169052565b5060a08401516fffffffffffffffffffffffffffffffff811660e08501525060c08401516fffffffffffffffffffffffffffffffff811661010085015250949350505050565b5f602082840312156145d5575f5ffd5b813561236a816134aa565b5f5f5f606084860312156145f2575f5ffd5b83516145fd816134aa565b602085015190935061460e81613268565b604085015190925061346481613381565b5f82518060208501845e5f92019182525091905056fea264697066735822122059dc6c646ed08594822a9083525ff178d43906214ff978ad82156f58546a6bc764736f6c634300081c0033",
    "linkReferences": {
      "src/Initializer.sol": {
        "Initializer": [
          {
            "start": 4007,
            "length": 20
          }
        ]
      },
      "src/Verification.sol": {
        "Verification": [
          {
            "start": 8750,
            "length": 20
          }
        ]
      },
      "src/v1/Calls.sol": {
        "CallsV1": [
          {
            "start": 2277,
            "length": 20
          },
          {
            "start": 2458,
            "length": 20
          },
          {
            "start": 2541,
            "length": 20
          },
          {
            "start": 2723,
            "length": 20
          },
          {
            "start": 3053,
            "length": 20
          },
          {
            "start": 4277,
            "length": 20
          },
          {
            "start": 4581,
            "length": 20
          },
          {
            "start": 5073,
            "length": 20
          },
          {
            "start": 8330,
            "length": 20
          }
        ]
      },
      "src/v1/Handlers.sol": {
        "HandlersV1": [
          {
            "start": 2912,
            "length": 20
          },
          {
            "start": 3786,
            "length": 20
          },
          {
            "start": 4146,
            "length": 20
          },
          {
            "start": 4534,
            "length": 20
          },
          {
            "start": 4783,
            "length": 20
          },
          {
            "start": 5467,
            "length": 20
          },
          {
            "start": 5729,
            "length": 20
          },
          {
            "start": 5941,
            "length": 20
          }
        ]
      },
      "src/v2/Calls.sol": {
        "CallsV2": [
          {
            "start": 4862,
            "length": 20
          },
          {
            "start": 5556,
            "length": 20
          },
          {
            "start": 8031,
            "length": 20
          }
        ]
      },
      "src/v2/Handlers.sol": {
        "HandlersV2": [
          {
            "start": 3250,
            "length": 20
          },
          {
            "start": 3389,
            "length": 20
          },
          {
            "start": 3613,
            "length": 20
          },
          {
            "start": 3925,
            "length": 20
          },
          {
            "start": 5270,
            "length": 20
          },
          {
            "start": 8239,
            "length": 20
          }
        ]
      }
    }
  },
  "methodIdentifiers": {
    "AGENT_EXECUTOR()": "423e69b6",
    "BEEFY_CLIENT()": "90ffc4f9",
    "agentOf(bytes32)": "5e6dae26",
    "channelNoncesOf(bytes32)": "2a6c3229",
    "channelOperatingModeOf(bytes32)": "0705f465",
    "depositEther()": "98ea5fca",
    "implementation()": "5c60da1b",
    "initialize(bytes)": "439fab91",
    "isTokenRegistered(address)": "26aa101f",
    "operatingMode()": "38004f69",
    "pricingParameters()": "0b617646",
    "queryForeignTokenID(address)": "be8d42c0",
    "quoteRegisterTokenFee()": "805ce31d",
    "quoteSendTokenFee(address,uint32,uint128)": "928bc49d",
    "registerToken(address)": "09824a80",
    "sendToken(address,uint32,(uint8,bytes),uint128,uint128)": "52054834",
    "submitV1((bytes32,uint64,uint8,bytes,uint64,uint256,uint256,bytes32),bytes32[],((bytes32,uint256,bytes32,bytes32,(uint256,bytes4,bytes)[]),(uint256,uint256,bytes32[]),(uint8,uint32,bytes32,uint64,uint32,bytes32),bytes32[],uint256))": "df4ed829",
    "tokenAddressOf(bytes32)": "fe61cc49",
    "v1_handleAgentExecute(bytes)": "8450a97c",
    "v1_handleMintForeignToken(bytes32,bytes)": "6a64d9fb",
    "v1_handleRegisterForeignToken(bytes)": "c536218f",
    "v1_handleSetOperatingMode(bytes)": "c9bd1e5b",
    "v1_handleSetPricingParameters(bytes)": "b0a23d44",
    "v1_handleSetTokenTransferFees(bytes)": "27c1d325",
    "v1_handleUnlockNativeToken(bytes)": "46cd2751",
    "v1_handleUpgrade(bytes)": "3f8bb4d9",
    "v2_createAgent(bytes32)": "b39053c5",
    "v2_handleCallContract(bytes32,bytes)": "2fb8ac58",
    "v2_handleMintForeignToken(bytes)": "988062ea",
    "v2_handleRegisterForeignToken(bytes)": "42e3ccfa",
    "v2_handleSetOperatingMode(bytes)": "2dd677b1",
    "v2_handleUnlockNativeToken(bytes)": "3ae65d7e",
    "v2_handleUpgrade(bytes)": "f906d309",
    "v2_isDispatched(uint64)": "c66414c5",
    "v2_outboundNonce()": "860929ee",
    "v2_registerToken(address,uint8,uint128,uint128)": "d58a8be4",
    "v2_sendMessage(bytes,bytes[],bytes,uint128,uint128)": "f2e500b2",
    "v2_submit((bytes32,uint64,bytes32,(uint8,uint64,bytes)[]),bytes32[],((bytes32,uint256,bytes32,bytes32,(uint256,bytes4,bytes)[]),(uint256,uint256,bytes32[]),(uint8,uint32,bytes32,uint64,uint32,bytes32),bytes32[],uint256),bytes32)": "de469bc7"
  },
  "id": 57
}