{
  "abi": [
    {
      "type": "constructor",
      "inputs": [
        {
          "name": "_name",
          "type": "string",
          "internalType": "string"
        },
        {
          "name": "_symbol",
          "type": "string",
          "internalType": "string"
        },
        {
          "name": "_decimals",
          "type": "uint8",
          "internalType": "uint8"
        }
      ],
      "stateMutability": "nonpayable"
    },
    {
      "type": "function",
      "name": "DOMAIN_SEPARATOR",
      "inputs": [],
      "outputs": [
        {
          "name": "",
          "type": "bytes32",
          "internalType": "bytes32"
        }
      ],
      "stateMutability": "view"
    },
    {
      "type": "function",
      "name": "allowance",
      "inputs": [
        {
          "name": "_owner",
          "type": "address",
          "internalType": "address"
        },
        {
          "name": "spender",
          "type": "address",
          "internalType": "address"
        }
      ],
      "outputs": [
        {
          "name": "",
          "type": "uint256",
          "internalType": "uint256"
        }
      ],
      "stateMutability": "view"
    },
    {
      "type": "function",
      "name": "approve",
      "inputs": [
        {
          "name": "spender",
          "type": "address",
          "internalType": "address"
        },
        {
          "name": "amount",
          "type": "uint256",
          "internalType": "uint256"
        }
      ],
      "outputs": [
        {
          "name": "",
          "type": "bool",
          "internalType": "bool"
        }
      ],
      "stateMutability": "nonpayable"
    },
    {
      "type": "function",
      "name": "balanceOf",
      "inputs": [
        {
          "name": "account",
          "type": "address",
          "internalType": "address"
        }
      ],
      "outputs": [
        {
          "name": "",
          "type": "uint256",
          "internalType": "uint256"
        }
      ],
      "stateMutability": "view"
    },
    {
      "type": "function",
      "name": "burn",
      "inputs": [
        {
          "name": "account",
          "type": "address",
          "internalType": "address"
        },
        {
          "name": "amount",
          "type": "uint256",
          "internalType": "uint256"
        }
      ],
      "outputs": [],
      "stateMutability": "nonpayable"
    },
    {
      "type": "function",
      "name": "decimals",
      "inputs": [],
      "outputs": [
        {
          "name": "",
          "type": "uint8",
          "internalType": "uint8"
        }
      ],
      "stateMutability": "view"
    },
    {
      "type": "function",
      "name": "gateway",
      "inputs": [],
      "outputs": [
        {
          "name": "",
          "type": "address",
          "internalType": "address"
        }
      ],
      "stateMutability": "view"
    },
    {
      "type": "function",
      "name": "mint",
      "inputs": [
        {
          "name": "account",
          "type": "address",
          "internalType": "address"
        },
        {
          "name": "amount",
          "type": "uint256",
          "internalType": "uint256"
        }
      ],
      "outputs": [],
      "stateMutability": "nonpayable"
    },
    {
      "type": "function",
      "name": "name",
      "inputs": [],
      "outputs": [
        {
          "name": "",
          "type": "string",
          "internalType": "string"
        }
      ],
      "stateMutability": "view"
    },
    {
      "type": "function",
      "name": "nonces",
      "inputs": [
        {
          "name": "account",
          "type": "address",
          "internalType": "address"
        }
      ],
      "outputs": [
        {
          "name": "",
          "type": "uint256",
          "internalType": "uint256"
        }
      ],
      "stateMutability": "view"
    },
    {
      "type": "function",
      "name": "permit",
      "inputs": [
        {
          "name": "issuer",
          "type": "address",
          "internalType": "address"
        },
        {
          "name": "spender",
          "type": "address",
          "internalType": "address"
        },
        {
          "name": "value",
          "type": "uint256",
          "internalType": "uint256"
        },
        {
          "name": "deadline",
          "type": "uint256",
          "internalType": "uint256"
        },
        {
          "name": "v",
          "type": "uint8",
          "internalType": "uint8"
        },
        {
          "name": "r",
          "type": "bytes32",
          "internalType": "bytes32"
        },
        {
          "name": "s",
          "type": "bytes32",
          "internalType": "bytes32"
        }
      ],
      "outputs": [],
      "stateMutability": "nonpayable"
    },
    {
      "type": "function",
      "name": "symbol",
      "inputs": [],
      "outputs": [
        {
          "name": "",
          "type": "string",
          "internalType": "string"
        }
      ],
      "stateMutability": "view"
    },
    {
      "type": "function",
      "name": "totalSupply",
      "inputs": [],
      "outputs": [
        {
          "name": "",
          "type": "uint256",
          "internalType": "uint256"
        }
      ],
      "stateMutability": "view"
    },
    {
      "type": "function",
      "name": "transfer",
      "inputs": [
        {
          "name": "recipient",
          "type": "address",
          "internalType": "address"
        },
        {
          "name": "amount",
          "type": "uint256",
          "internalType": "uint256"
        }
      ],
      "outputs": [
        {
          "name": "",
          "type": "bool",
          "internalType": "bool"
        }
      ],
      "stateMutability": "nonpayable"
    },
    {
      "type": "function",
      "name": "transferFrom",
      "inputs": [
        {
          "name": "sender",
          "type": "address",
          "internalType": "address"
        },
        {
          "name": "recipient",
          "type": "address",
          "internalType": "address"
        },
        {
          "name": "amount",
          "type": "uint256",
          "internalType": "uint256"
        }
      ],
      "outputs": [
        {
          "name": "",
          "type": "bool",
          "internalType": "bool"
        }
      ],
      "stateMutability": "nonpayable"
    },
    {
      "type": "event",
      "name": "Approval",
      "inputs": [
        {
          "name": "owner",
          "type": "address",
          "indexed": true,
          "internalType": "address"
        },
        {
          "name": "spender",
          "type": "address",
          "indexed": true,
          "internalType": "address"
        },
        {
          "name": "value",
          "type": "uint256",
          "indexed": false,
          "internalType": "uint256"
        }
      ],
      "anonymous": false
    },
    {
      "type": "event",
      "name": "Transfer",
      "inputs": [
        {
          "name": "from",
          "type": "address",
          "indexed": true,
          "internalType": "address"
        },
        {
          "name": "to",
          "type": "address",
          "indexed": true,
          "internalType": "address"
        },
        {
          "name": "value",
          "type": "uint256",
          "indexed": false,
          "internalType": "uint256"
        }
      ],
      "anonymous": false
    },
    {
      "type": "error",
      "name": "InsufficientAllowance",
      "inputs": [
        {
          "name": "spender",
          "type": "address",
          "internalType": "address"
        },
        {
          "name": "allowance",
          "type": "uint256",
          "internalType": "uint256"
        },
        {
          "name": "needed",
          "type": "uint256",
          "internalType": "uint256"
        }
      ]
    },
    {
      "type": "error",
      "name": "InsufficientBalance",
      "inputs": [
        {
          "name": "sender",
          "type": "address",
          "internalType": "address"
        },
        {
          "name": "balance",
          "type": "uint256",
          "internalType": "uint256"
        },
        {
          "name": "needed",
          "type": "uint256",
          "internalType": "uint256"
        }
      ]
    },
    {
      "type": "error",
      "name": "InvalidApprover",
      "inputs": [
        {
          "name": "",
          "type": "address",
          "internalType": "address"
        }
      ]
    },
    {
      "type": "error",
      "name": "InvalidReceiver",
      "inputs": [
        {
          "name": "",
          "type": "address",
          "internalType": "address"
        }
      ]
    },
    {
      "type": "error",
      "name": "InvalidSender",
      "inputs": [
        {
          "name": "",
          "type": "address",
          "internalType": "address"
        }
      ]
    },
    {
      "type": "error",
      "name": "InvalidSignature",
      "inputs": []
    },
    {
      "type": "error",
      "name": "InvalidSpender",
      "inputs": [
        {
          "name": "",
          "type": "address",
          "internalType": "address"
        }
      ]
    },
    {
      "type": "error",
      "name": "PermitExpired",
      "inputs": []
    },
    {
      "type": "error",
      "name": "Unauthorized",
      "inputs": []
    }
  ],
  "bytecode": {
    "object": "0x60c060405234801561000f575f5ffd5b50604051610df8380380610df883398101604081905261002e916100f5565b5f61003984826101f6565b50600161004683826101f6565b5060ff1660a0525050336080526102b0565b634e487b7160e01b5f52604160045260245ffd5b5f82601f83011261007b575f5ffd5b81516001600160401b0381111561009457610094610058565b604051601f8201601f19908116603f011681016001600160401b03811182821017156100c2576100c2610058565b6040528181528382016020018510156100d9575f5ffd5b8160208501602083015e5f918101602001919091529392505050565b5f5f5f60608486031215610107575f5ffd5b83516001600160401b0381111561011c575f5ffd5b6101288682870161006c565b602086015190945090506001600160401b03811115610145575f5ffd5b6101518682870161006c565b925050604084015160ff81168114610167575f5ffd5b809150509250925092565b600181811c9082168061018657607f821691505b6020821081036101a457634e487b7160e01b5f52602260045260245ffd5b50919050565b601f8211156101f157805f5260205f20601f840160051c810160208510156101cf5750805b601f840160051c820191505b818110156101ee575f81556001016101db565b50505b505050565b81516001600160401b0381111561020f5761020f610058565b6102238161021d8454610172565b846101aa565b6020601f821160018114610255575f831561023e5750848201515b5f19600385901b1c1916600184901b1784556101ee565b5f84815260208120601f198516915b828110156102845787850151825560209485019460019092019101610264565b50848210156102a157868401515f19600387901b60f8161c191681555b50505050600190811b01905550565b60805160a051610b196102df5f395f6101ab01525f818161013a0152818161059901526106b50152610b195ff3fe608060405234801561000f575f5ffd5b50600436106100f0575f3560e01c806340c10f19116100935780639dc29fac116100635780639dc29fac1461026e578063a9059cbb14610281578063d505accf14610294578063dd62ed3e146102a7575f5ffd5b806340c10f19146101e757806370a08231146101fc5780637ecebe001461023157806395d89b4114610266575f5ffd5b806318160ddd116100ce57806318160ddd1461018157806323b872dd14610193578063313ce567146101a65780633644e515146101df575f5ffd5b806306fdde03146100f4578063095ea7b314610112578063116191b614610135575b5f5ffd5b6100fc6102ec565b60405161010991906108c8565b60405180910390f35b610125610120366004610943565b610377565b6040519015158152602001610109565b61015c7f000000000000000000000000000000000000000000000000000000000000000081565b60405173ffffffffffffffffffffffffffffffffffffffff9091168152602001610109565b6005545b604051908152602001610109565b6101256101a136600461096b565b61042f565b6101cd7f000000000000000000000000000000000000000000000000000000000000000081565b60405160ff9091168152602001610109565b6101856104ef565b6101fa6101f5366004610943565b610581565b005b61018561020a3660046109a5565b73ffffffffffffffffffffffffffffffffffffffff165f9081526002602052604090205490565b61018561023f3660046109a5565b73ffffffffffffffffffffffffffffffffffffffff165f9081526004602052604090205490565b6100fc610690565b6101fa61027c366004610943565b61069d565b61012561028f366004610943565b610780565b6101fa6102a23660046109be565b6107f6565b6101856102b5366004610a2b565b73ffffffffffffffffffffffffffffffffffffffff9182165f90815260036020908152604080832093909416825291909152205490565b5f80546102f890610a5c565b80601f016020809104026020016040519081016040528092919081815260200182805461032490610a5c565b801561036f5780601f106103465761010080835404028352916020019161036f565b820191905f5260205f20905b81548152906001019060200180831161035257829003601f168201915b505050505081565b6040517f38412ce50000000000000000000000000000000000000000000000000000000081526002600482015273ffffffffffffffffffffffffffffffffffffffff83166024820152604481018290525f9073__$5bc549e11f8d63bcc65412ded69a0ddb68$__906338412ce5906064015b602060405180830381865af4158015610404573d5f5f3e3d5ffd5b505050506040513d601f19601f820116820180604052508101906104289190610aad565b9392505050565b6040517f1b8d43b00000000000000000000000000000000000000000000000000000000081526002600482015273ffffffffffffffffffffffffffffffffffffffff808516602483015283166044820152606481018290525f9073__$5bc549e11f8d63bcc65412ded69a0ddb68$__90631b8d43b090608401602060405180830381865af41580156104c3573d5f5f3e3d5ffd5b505050506040513d601f19601f820116820180604052508101906104e79190610aad565b949350505050565b6040517f957cae980000000000000000000000000000000000000000000000000000000081525f600482018190529073__$5bc549e11f8d63bcc65412ded69a0ddb68$__9063957cae9890602401602060405180830381865af4158015610558573d5f5f3e3d5ffd5b505050506040513d601f19601f8201168201806040525081019061057c9190610acc565b905090565b3373ffffffffffffffffffffffffffffffffffffffff7f000000000000000000000000000000000000000000000000000000000000000016146105f0576040517f82b4290000000000000000000000000000000000000000000000000000000000815260040160405180910390fd5b6040517f480ff0650000000000000000000000000000000000000000000000000000000081526002600482015273ffffffffffffffffffffffffffffffffffffffff831660248201526044810182905273__$5bc549e11f8d63bcc65412ded69a0ddb68$__9063480ff065906064015b5f6040518083038186803b158015610676575f5ffd5b505af4158015610688573d5f5f3e3d5ffd5b505050505050565b600180546102f890610a5c565b3373ffffffffffffffffffffffffffffffffffffffff7f0000000000000000000000000000000000000000000000000000000000000000161461070c576040517f82b4290000000000000000000000000000000000000000000000000000000000815260040160405180910390fd5b6040517fc7f623870000000000000000000000000000000000000000000000000000000081526002600482015273ffffffffffffffffffffffffffffffffffffffff831660248201526044810182905273__$5bc549e11f8d63bcc65412ded69a0ddb68$__9063c7f6238790606401610660565b6040517f6f378c060000000000000000000000000000000000000000000000000000000081526002600482015273ffffffffffffffffffffffffffffffffffffffff83166024820152604481018290525f9073__$5bc549e11f8d63bcc65412ded69a0ddb68$__90636f378c06906064016103e9565b6040517f19a79b48000000000000000000000000000000000000000000000000000000008152600260048201525f602482015273ffffffffffffffffffffffffffffffffffffffff8089166044830152871660648201526084810186905260a4810185905260ff841660c482015260e48101839052610104810182905273__$5bc549e11f8d63bcc65412ded69a0ddb68$__906319a79b4890610124015f6040518083038186803b1580156108a9575f5ffd5b505af41580156108bb573d5f5f3e3d5ffd5b5050505050505050505050565b602081525f82518060208401528060208501604085015e5f6040828501015260407fffffffffffffffffffffffffffffffffffffffffffffffffffffffffffffffe0601f83011684010191505092915050565b803573ffffffffffffffffffffffffffffffffffffffff8116811461093e575f5ffd5b919050565b5f5f60408385031215610954575f5ffd5b61095d8361091b565b946020939093013593505050565b5f5f5f6060848603121561097d575f5ffd5b6109868461091b565b92506109946020850161091b565b929592945050506040919091013590565b5f602082840312156109b5575f5ffd5b6104288261091b565b5f5f5f5f5f5f5f60e0888a0312156109d4575f5ffd5b6109dd8861091b565b96506109eb6020890161091b565b95506040880135945060608801359350608088013560ff81168114610a0e575f5ffd5b9699959850939692959460a0840135945060c09093013592915050565b5f5f60408385031215610a3c575f5ffd5b610a458361091b565b9150610a536020840161091b565b90509250929050565b600181811c90821680610a7057607f821691505b602082108103610aa7577f4e487b71000000000000000000000000000000000000000000000000000000005f52602260045260245ffd5b50919050565b5f60208284031215610abd575f5ffd5b81518015158114610428575f5ffd5b5f60208284031215610adc575f5ffd5b505191905056fea2646970667358221220cd9bde7a31adf66bd17b96168bbb3003ed547c5da4a62fd9c8c703fd976cfd6564736f6c634300081c0033",
    "linkReferences": {
      "src/TokenLib.sol": {
        "TokenLib": [
          {
            "start": 1706,
            "length": 20
          },
          {
            "start": 1898,
            "length": 20
          },
          {
            "start": 2047,
            "length": 20
          },
          {
            "start": 2337,
            "length": 20
          },
          {
            "start": 2621,
            "length": 20
          },
          {
            "start": 2739,
            "length": 20
          },
          {
            "start": 2900,
            "length": 20
          }
        ]
      }
    }
  },
  "methodIdentifiers": {
    "DOMAIN_SEPARATOR()": "3644e515",
    "allowance(address,address)": "dd62ed3e",
    "approve(address,uint256)": "095ea7b3",
    "balanceOf(address)": "70a08231",
    "burn(address,uint256)": "9dc29fac",
    "decimals()": "313ce567",
    "gateway()": "116191b6",
    "mint(address,uint256)": "40c10f19",
    "name()": "06fdde03",
    "nonces(address)": "7ecebe00",
    "permit(address,address,uint256,uint256,uint8,bytes32,bytes32)": "d505accf",
    "symbol()": "95d89b41",
    "totalSupply()": "18160ddd",
    "transfer(address,uint256)": "a9059cbb",
    "transferFrom(address,address,uint256)": "23b872dd"
  },
  "id": 53
}